{
  "contractName": "VotingSystem",
  "abi": [
    {
      "inputs": [],
      "stateMutability": "nonpayable",
      "type": "constructor"
    },
    {
      "anonymous": false,
      "inputs": [
        {
          "indexed": false,
          "internalType": "address",
          "name": "admin",
          "type": "address"
        }
      ],
      "name": "AdminAdded",
      "type": "event"
    },
    {
      "anonymous": false,
      "inputs": [
        {
          "indexed": false,
          "internalType": "address",
          "name": "admin",
          "type": "address"
        }
      ],
      "name": "AdminRemoved",
      "type": "event"
    },
    {
      "anonymous": false,
      "inputs": [
        {
          "indexed": true,
          "internalType": "uint256",
          "name": "electionId",
          "type": "uint256"
        },
        {
          "indexed": false,
          "internalType": "uint256",
          "name": "candidateId",
          "type": "uint256"
        },
        {
          "indexed": false,
          "internalType": "string",
          "name": "name",
          "type": "string"
        }
      ],
      "name": "CandidateAdded",
      "type": "event"
    },
    {
      "anonymous": false,
      "inputs": [
        {
          "indexed": true,
          "internalType": "uint256",
          "name": "electionId",
          "type": "uint256"
        },
        {
          "indexed": false,
          "internalType": "string",
          "name": "name",
          "type": "string"
        },
        {
          "indexed": false,
          "internalType": "address",
          "name": "creator",
          "type": "address"
        }
      ],
      "name": "ElectionCreated",
      "type": "event"
    },
    {
      "anonymous": false,
      "inputs": [
        {
          "indexed": true,
          "internalType": "uint256",
          "name": "electionId",
          "type": "uint256"
        },
        {
          "indexed": false,
          "internalType": "bool",
          "name": "isActive",
          "type": "bool"
        }
      ],
      "name": "ElectionStatusChanged",
      "type": "event"
    },
    {
      "anonymous": false,
      "inputs": [
        {
          "indexed": true,
          "internalType": "uint256",
          "name": "electionId",
          "type": "uint256"
        },
        {
          "indexed": false,
          "internalType": "address",
          "name": "voter",
          "type": "address"
        },
        {
          "indexed": false,
          "internalType": "uint256",
          "name": "candidateId",
          "type": "uint256"
        }
      ],
      "name": "VoteCast",
      "type": "event"
    },
    {
      "anonymous": false,
      "inputs": [
        {
          "indexed": true,
          "internalType": "uint256",
          "name": "electionId",
          "type": "uint256"
        },
        {
          "indexed": false,
          "internalType": "address",
          "name": "voter",
          "type": "address"
        }
      ],
      "name": "VoterRegistered",
      "type": "event"
    },
    {
      "inputs": [
        {
          "internalType": "uint256",
          "name": "",
          "type": "uint256"
        }
      ],
      "name": "activeElectionIds",
      "outputs": [
        {
          "internalType": "uint256",
          "name": "",
          "type": "uint256"
        }
      ],
      "stateMutability": "view",
      "type": "function",
      "constant": true
    },
    {
      "inputs": [
        {
          "internalType": "address",
          "name": "",
          "type": "address"
        }
      ],
      "name": "admins",
      "outputs": [
        {
          "internalType": "bool",
          "name": "",
          "type": "bool"
        }
      ],
      "stateMutability": "view",
      "type": "function",
      "constant": true
    },
    {
      "inputs": [
        {
          "internalType": "uint256",
          "name": "",
          "type": "uint256"
        },
        {
          "internalType": "uint256",
          "name": "",
          "type": "uint256"
        }
      ],
      "name": "candidates",
      "outputs": [
        {
          "internalType": "uint256",
          "name": "id",
          "type": "uint256"
        },
        {
          "internalType": "string",
          "name": "name",
          "type": "string"
        },
        {
          "internalType": "string",
          "name": "party",
          "type": "string"
        },
        {
          "internalType": "uint256",
          "name": "voteCount",
          "type": "uint256"
        },
        {
          "internalType": "string",
          "name": "imageUrl",
          "type": "string"
        }
      ],
      "stateMutability": "view",
      "type": "function",
      "constant": true
    },
    {
      "inputs": [],
      "name": "electionCount",
      "outputs": [
        {
          "internalType": "uint256",
          "name": "",
          "type": "uint256"
        }
      ],
      "stateMutability": "view",
      "type": "function",
      "constant": true
    },
    {
      "inputs": [
        {
          "internalType": "uint256",
          "name": "",
          "type": "uint256"
        }
      ],
      "name": "elections",
      "outputs": [
        {
          "internalType": "uint256",
          "name": "id",
          "type": "uint256"
        },
        {
          "internalType": "string",
          "name": "name",
          "type": "string"
        },
        {
          "internalType": "string",
          "name": "description",
          "type": "string"
        },
        {
          "internalType": "uint256",
          "name": "startTime",
          "type": "uint256"
        },
        {
          "internalType": "uint256",
          "name": "endTime",
          "type": "uint256"
        },
        {
          "internalType": "bool",
          "name": "isActive",
          "type": "bool"
        },
        {
          "internalType": "address",
          "name": "creator",
          "type": "address"
        },
        {
          "internalType": "uint256",
          "name": "totalVotes",
          "type": "uint256"
        },
        {
          "internalType": "uint256",
          "name": "candidateCount",
          "type": "uint256"
        }
      ],
      "stateMutability": "view",
      "type": "function",
      "constant": true
    },
    {
      "inputs": [
        {
          "internalType": "uint256",
          "name": "",
          "type": "uint256"
        },
        {
          "internalType": "address",
          "name": "",
          "type": "address"
        }
      ],
      "name": "eligibleVoters",
      "outputs": [
        {
          "internalType": "bool",
          "name": "",
          "type": "bool"
        }
      ],
      "stateMutability": "view",
      "type": "function",
      "constant": true
    },
    {
      "inputs": [
        {
          "internalType": "uint256",
          "name": "",
          "type": "uint256"
        },
        {
          "internalType": "address",
          "name": "",
          "type": "address"
        }
      ],
      "name": "hasVoted",
      "outputs": [
        {
          "internalType": "bool",
          "name": "",
          "type": "bool"
        }
      ],
      "stateMutability": "view",
      "type": "function",
      "constant": true
    },
    {
      "inputs": [
        {
          "internalType": "uint256",
          "name": "",
          "type": "uint256"
        },
        {
          "internalType": "address",
          "name": "",
          "type": "address"
        }
      ],
      "name": "voterChoice",
      "outputs": [
        {
          "internalType": "uint256",
          "name": "",
          "type": "uint256"
        }
      ],
      "stateMutability": "view",
      "type": "function",
      "constant": true
    },
    {
      "inputs": [
        {
          "internalType": "address",
          "name": "_admin",
          "type": "address"
        }
      ],
      "name": "addAdmin",
      "outputs": [],
      "stateMutability": "nonpayable",
      "type": "function"
    },
    {
      "inputs": [
        {
          "internalType": "address",
          "name": "_admin",
          "type": "address"
        }
      ],
      "name": "removeAdmin",
      "outputs": [],
      "stateMutability": "nonpayable",
      "type": "function"
    },
    {
      "inputs": [
        {
          "internalType": "address",
          "name": "_address",
          "type": "address"
        }
      ],
      "name": "isAdmin",
      "outputs": [
        {
          "internalType": "bool",
          "name": "",
          "type": "bool"
        }
      ],
      "stateMutability": "view",
      "type": "function",
      "constant": true
    },
    {
      "inputs": [
        {
          "internalType": "string",
          "name": "_name",
          "type": "string"
        },
        {
          "internalType": "string",
          "name": "_description",
          "type": "string"
        },
        {
          "internalType": "uint256",
          "name": "_startTime",
          "type": "uint256"
        },
        {
          "internalType": "uint256",
          "name": "_endTime",
          "type": "uint256"
        }
      ],
      "name": "createElection",
      "outputs": [
        {
          "internalType": "uint256",
          "name": "",
          "type": "uint256"
        }
      ],
      "stateMutability": "nonpayable",
      "type": "function"
    },
    {
      "inputs": [
        {
          "internalType": "uint256",
          "name": "_electionId",
          "type": "uint256"
        }
      ],
      "name": "toggleElectionStatus",
      "outputs": [],
      "stateMutability": "nonpayable",
      "type": "function"
    },
    {
      "inputs": [
        {
          "internalType": "uint256",
          "name": "_electionId",
          "type": "uint256"
        },
        {
          "internalType": "string",
          "name": "_name",
          "type": "string"
        },
        {
          "internalType": "string",
          "name": "_party",
          "type": "string"
        },
        {
          "internalType": "string",
          "name": "_imageUrl",
          "type": "string"
        }
      ],
      "name": "addCandidate",
      "outputs": [],
      "stateMutability": "nonpayable",
      "type": "function"
    },
    {
      "inputs": [
        {
          "internalType": "uint256",
          "name": "_electionId",
          "type": "uint256"
        },
        {
          "internalType": "address",
          "name": "_voterAddress",
          "type": "address"
        }
      ],
      "name": "registerVoter",
      "outputs": [],
      "stateMutability": "nonpayable",
      "type": "function"
    },
    {
      "inputs": [
        {
          "internalType": "uint256",
          "name": "_electionId",
          "type": "uint256"
        },
        {
          "internalType": "address[]",
          "name": "_voters",
          "type": "address[]"
        }
      ],
      "name": "registerMultipleVoters",
      "outputs": [],
      "stateMutability": "nonpayable",
      "type": "function"
    },
    {
      "inputs": [
        {
          "internalType": "uint256",
          "name": "_electionId",
          "type": "uint256"
        },
        {
          "internalType": "uint256",
          "name": "_candidateId",
          "type": "uint256"
        }
      ],
      "name": "vote",
      "outputs": [],
      "stateMutability": "nonpayable",
      "type": "function"
    },
    {
      "inputs": [
        {
          "internalType": "uint256",
          "name": "_electionId",
          "type": "uint256"
        }
      ],
      "name": "getElection",
      "outputs": [
        {
          "components": [
            {
              "internalType": "uint256",
              "name": "id",
              "type": "uint256"
            },
            {
              "internalType": "string",
              "name": "name",
              "type": "string"
            },
            {
              "internalType": "string",
              "name": "description",
              "type": "string"
            },
            {
              "internalType": "uint256",
              "name": "startTime",
              "type": "uint256"
            },
            {
              "internalType": "uint256",
              "name": "endTime",
              "type": "uint256"
            },
            {
              "internalType": "bool",
              "name": "isActive",
              "type": "bool"
            },
            {
              "internalType": "address",
              "name": "creator",
              "type": "address"
            },
            {
              "internalType": "uint256",
              "name": "totalVotes",
              "type": "uint256"
            },
            {
              "internalType": "uint256",
              "name": "candidateCount",
              "type": "uint256"
            }
          ],
          "internalType": "struct VotingSystem.Election",
          "name": "",
          "type": "tuple"
        }
      ],
      "stateMutability": "view",
      "type": "function",
      "constant": true
    },
    {
      "inputs": [
        {
          "internalType": "uint256",
          "name": "_electionId",
          "type": "uint256"
        },
        {
          "internalType": "uint256",
          "name": "_candidateId",
          "type": "uint256"
        }
      ],
      "name": "getCandidate",
      "outputs": [
        {
          "components": [
            {
              "internalType": "uint256",
              "name": "id",
              "type": "uint256"
            },
            {
              "internalType": "string",
              "name": "name",
              "type": "string"
            },
            {
              "internalType": "string",
              "name": "party",
              "type": "string"
            },
            {
              "internalType": "uint256",
              "name": "voteCount",
              "type": "uint256"
            },
            {
              "internalType": "string",
              "name": "imageUrl",
              "type": "string"
            }
          ],
          "internalType": "struct VotingSystem.Candidate",
          "name": "",
          "type": "tuple"
        }
      ],
      "stateMutability": "view",
      "type": "function",
      "constant": true
    },
    {
      "inputs": [
        {
          "internalType": "uint256",
          "name": "_electionId",
          "type": "uint256"
        }
      ],
      "name": "getAllCandidates",
      "outputs": [
        {
          "components": [
            {
              "internalType": "uint256",
              "name": "id",
              "type": "uint256"
            },
            {
              "internalType": "string",
              "name": "name",
              "type": "string"
            },
            {
              "internalType": "string",
              "name": "party",
              "type": "string"
            },
            {
              "internalType": "uint256",
              "name": "voteCount",
              "type": "uint256"
            },
            {
              "internalType": "string",
              "name": "imageUrl",
              "type": "string"
            }
          ],
          "internalType": "struct VotingSystem.Candidate[]",
          "name": "",
          "type": "tuple[]"
        }
      ],
      "stateMutability": "view",
      "type": "function",
      "constant": true
    },
    {
      "inputs": [],
      "name": "getActiveElections",
      "outputs": [
        {
          "internalType": "uint256[]",
          "name": "",
          "type": "uint256[]"
        }
      ],
      "stateMutability": "view",
      "type": "function",
      "constant": true
    },
    {
      "inputs": [
        {
          "internalType": "uint256",
          "name": "_electionId",
          "type": "uint256"
        },
        {
          "internalType": "address",
          "name": "_voter",
          "type": "address"
        }
      ],
      "name": "isVoterEligible",
      "outputs": [
        {
          "internalType": "bool",
          "name": "",
          "type": "bool"
        }
      ],
      "stateMutability": "view",
      "type": "function",
      "constant": true
    },
    {
      "inputs": [
        {
          "internalType": "uint256",
          "name": "_electionId",
          "type": "uint256"
        },
        {
          "internalType": "address",
          "name": "_voter",
          "type": "address"
        }
      ],
      "name": "hasVoterVoted",
      "outputs": [
        {
          "internalType": "bool",
          "name": "",
          "type": "bool"
        }
      ],
      "stateMutability": "view",
      "type": "function",
      "constant": true
    },
    {
      "inputs": [
        {
          "internalType": "uint256",
          "name": "_electionId",
          "type": "uint256"
        },
        {
          "internalType": "address",
          "name": "_voter",
          "type": "address"
        }
      ],
      "name": "getVoterChoice",
      "outputs": [
        {
          "internalType": "uint256",
          "name": "",
          "type": "uint256"
        }
      ],
      "stateMutability": "view",
      "type": "function",
      "constant": true
    },
    {
      "inputs": [
        {
          "internalType": "uint256",
          "name": "_electionId",
          "type": "uint256"
        }
      ],
      "name": "getElectionResults",
      "outputs": [
        {
          "components": [
            {
              "internalType": "uint256",
              "name": "id",
              "type": "uint256"
            },
            {
              "internalType": "string",
              "name": "name",
              "type": "string"
            },
            {
              "internalType": "string",
              "name": "party",
              "type": "string"
            },
            {
              "internalType": "uint256",
              "name": "voteCount",
              "type": "uint256"
            },
            {
              "internalType": "string",
              "name": "imageUrl",
              "type": "string"
            }
          ],
          "internalType": "struct VotingSystem.Candidate[]",
          "name": "",
          "type": "tuple[]"
        }
      ],
      "stateMutability": "view",
      "type": "function",
      "constant": true
    },
    {
      "inputs": [
        {
          "internalType": "uint256",
          "name": "_electionId",
          "type": "uint256"
        }
      ],
      "name": "getElectionStatus",
      "outputs": [
        {
          "internalType": "string",
          "name": "",
          "type": "string"
        }
      ],
      "stateMutability": "view",
      "type": "function",
      "constant": true
    }
  ],
  "bytecode": "0x6080604052600060065534801561001557600080fd5b5033600081815260056020908152604091829020805460ff1916600117905590519182527f44d6d25963f097ad14f29f06854a01f575648a1ef82f30e562ccd3889717e339910160405180910390a1612f80806100736000396000f3fe608060405234801561001057600080fd5b506004361061018e5760003560e01c806377da476f116100de578063997d283011610097578063b384abef11610071578063b384abef14610416578063ce4a274314610429578063e8ededa61461043c578063f9ded6461461045c57600080fd5b8063997d2830146103da5780639d710777146103e3578063a0d96f0c1461040357600080fd5b806377da476f146103555780637ad36e84146103685780637de142421461037b578063828e8ff51461039f5780638a3b63b0146103b257806394c790bb146103c757600080fd5b8063429b62e51161014b578063514771411161012557806351477141146102c15780635e6fef01146102ec5780636a68583e14610314578063704802751461034257600080fd5b8063429b62e51461025057806343859632146102735780634bd46448146102a157600080fd5b80630eac27f41461019357806316ed95c8146101b957806317517e05146101ce5780631785f53c146101e157806324785b9e146101f457806324d7806c14610214575b600080fd5b6101a66101a13660046126e3565b61046f565b6040519081526020015b60405180910390f35b6101cc6101c736600461270f565b61053b565b005b6101cc6101dc36600461276f565b610656565b6101cc6101ef366004612828565b6107f0565b61020761020236600461270f565b61091f565b6040516101b09190612890565b610240610222366004612828565b6001600160a01b031660009081526005602052604090205460ff1690565b60405190151581526020016101b0565b61024061025e366004612828565b60056020526000908152604090205460ff1681565b6102406102813660046126e3565b600260209081526000928352604080842090915290825290205460ff1681565b6102b46102af3660046128a3565b610bb4565b6040516101b0919061292a565b6101a66102cf3660046126e3565b600460209081526000928352604080842090915290825290205481565b6102ff6102fa36600461270f565b610e3e565b6040516101b09998979695949392919061293d565b6102406103223660046126e3565b600360209081526000928352604080842090915290825290205460ff1681565b6101cc610350366004612828565b610fa4565b6102406103633660046126e3565b611083565b6101a6610376366004612a19565b6110e1565b61038e6103893660046128a3565b611327565b6040516101b0959493929190612a8d565b6101a66103ad36600461270f565b6114f5565b6103ba611516565b6040516101b09190612ade565b6101cc6103d53660046126e3565b61167a565b6101a660065481565b6103f66103f136600461270f565b6117b1565b6040516101b09190612b22565b6102406104113660046126e3565b6119d3565b6101cc6104243660046128a3565b611a31565b6101cc610437366004612bc8565b611d66565b61044f61044a36600461270f565b611ec2565b6040516101b09190612c5a565b61044f61046a36600461270f565b612314565b60008260008111801561048457506006548111155b6104a95760405162461bcd60e51b81526004016104a090612cbc565b60405180910390fd5b60008481526002602090815260408083206001600160a01b038716845290915290205460ff166105115760405162461bcd60e51b8152602060048201526013602482015272159bdd195c881a185cc81b9bdd081d9bdd1959606a1b60448201526064016104a0565b505060009182526004602090815260408084206001600160a01b0393909316845291905290205490565b3360009081526005602052604090205460ff1661056a5760405162461bcd60e51b81526004016104a090612cf3565b8060008111801561057d57506006548111155b6105995760405162461bcd60e51b81526004016104a090612cbc565b6000828152602081905260409020600501805460ff19811660ff91821615908117909255166105d0576105cb826125dc565b610606565b600780546001810182556000919091527fa66cc928b5edb82af9bd49922954155ab7b0942694bea4ce44661d9a8736c688018290555b6000828152602081815260409182902060050154915160ff9092161515825283917f550243ff1a84cc99f7f82bfd2e29380f33523ca72cde0783141c25ed8f4dede3910160405180910390a25050565b3360009081526005602052604090205460ff166106855760405162461bcd60e51b81526004016104a090612cf3565b8160008111801561069857506006548111155b6106b45760405162461bcd60e51b81526004016104a090612cbc565b60005b82518110156107ea576003600085815260200190815260200160002060008483815181106106e7576106e7612d35565b6020908102919091018101516001600160a01b031682528101919091526040016000205460ff166107d857600084815260036020526040812084516001929086908590811061073857610738612d35565b60200260200101516001600160a01b03166001600160a01b0316815260200190815260200160002060006101000a81548160ff021916908315150217905550837ff45b8429c36d478f9a6d081c4811a819b98aa5b608588bed9d406405cf2824738483815181106107ab576107ab612d35565b60200260200101516040516107cf91906001600160a01b0391909116815260200190565b60405180910390a25b806107e281612d61565b9150506106b7565b50505050565b3360009081526005602052604090205460ff1661081f5760405162461bcd60e51b81526004016104a090612cf3565b336001600160a01b038216036108705760405162461bcd60e51b815260206004820152601660248201527521b0b73737ba103932b6b7bb32903cb7bab939b2b63360511b60448201526064016104a0565b6001600160a01b03811660009081526005602052604090205460ff166108c75760405162461bcd60e51b815260206004820152600c60248201526b2737ba1030b71030b236b4b760a11b60448201526064016104a0565b6001600160a01b038116600081815260056020908152604091829020805460ff1916905590519182527fa3b62bc36326052d97ea62d63c3d60308ed4c3ea8ac079dd8499f1e9c4f80c0f91015b60405180910390a150565b60608160008111801561093457506006548111155b6109505760405162461bcd60e51b81526004016104a090612cbc565b6000806000858152602001908152602001600020604051806101200160405290816000820154815260200160018201805461098a90612d7a565b80601f01602080910402602001604051908101604052809291908181526020018280546109b690612d7a565b8015610a035780601f106109d857610100808354040283529160200191610a03565b820191906000526020600020905b8154815290600101906020018083116109e657829003601f168201915b50505050508152602001600282018054610a1c90612d7a565b80601f0160208091040260200160405190810160405280929190818152602001828054610a4890612d7a565b8015610a955780601f10610a6a57610100808354040283529160200191610a95565b820191906000526020600020905b815481529060010190602001808311610a7857829003601f168201915b50505091835250506003820154602082015260048201546040820152600582015460ff81161515606083015261010090046001600160a01b03166080820152600682015460a08083019190915260079092015460c090910152810151909150610b215760405180604001604052806008815260200167496e61637469766560c01b815250925050610bae565b8060600151421015610b59576040518060400160405280600b81526020016a139bdd0814dd185c9d195960aa1b815250925050610bae565b8060800151421115610b8b5760405180604001604052806005815260200164115b99195960da1b815250925050610bae565b6040518060400160405280600681526020016541637469766560d01b8152509250505b50919050565b610bbc612698565b82600081118015610bcf57506006548111155b610beb5760405162461bcd60e51b81526004016104a090612cbc565b600083118015610c0c57506000848152602081905260409020600701548311155b610c4c5760405162461bcd60e51b8152602060048201526011602482015270496e76616c69642063616e64696461746560781b60448201526064016104a0565b6000848152600160208181526040808420878552825292839020835160a0810190945280548452918201805491840191610c8590612d7a565b80601f0160208091040260200160405190810160405280929190818152602001828054610cb190612d7a565b8015610cfe5780601f10610cd357610100808354040283529160200191610cfe565b820191906000526020600020905b815481529060010190602001808311610ce157829003601f168201915b50505050508152602001600282018054610d1790612d7a565b80601f0160208091040260200160405190810160405280929190818152602001828054610d4390612d7a565b8015610d905780601f10610d6557610100808354040283529160200191610d90565b820191906000526020600020905b815481529060010190602001808311610d7357829003601f168201915b5050505050815260200160038201548152602001600482018054610db390612d7a565b80601f0160208091040260200160405190810160405280929190818152602001828054610ddf90612d7a565b8015610e2c5780601f10610e0157610100808354040283529160200191610e2c565b820191906000526020600020905b815481529060010190602001808311610e0f57829003601f168201915b50505050508152505091505092915050565b60006020819052908152604090208054600182018054919291610e6090612d7a565b80601f0160208091040260200160405190810160405280929190818152602001828054610e8c90612d7a565b8015610ed95780601f10610eae57610100808354040283529160200191610ed9565b820191906000526020600020905b815481529060010190602001808311610ebc57829003601f168201915b505050505090806002018054610eee90612d7a565b80601f0160208091040260200160405190810160405280929190818152602001828054610f1a90612d7a565b8015610f675780601f10610f3c57610100808354040283529160200191610f67565b820191906000526020600020905b815481529060010190602001808311610f4a57829003601f168201915b5050505060038301546004840154600585015460068601546007909601549495929491935060ff8116926101009091046001600160a01b03169189565b3360009081526005602052604090205460ff16610fd35760405162461bcd60e51b81526004016104a090612cf3565b6001600160a01b03811660009081526005602052604090205460ff161561102f5760405162461bcd60e51b815260206004820152601060248201526f20b63932b0b23c9030b71030b236b4b760811b60448201526064016104a0565b6001600160a01b038116600081815260056020908152604091829020805460ff1916600117905590519182527f44d6d25963f097ad14f29f06854a01f575648a1ef82f30e562ccd3889717e3399101610914565b60008260008111801561109857506006548111155b6110b45760405162461bcd60e51b81526004016104a090612cbc565b505060009182526003602090815260408084206001600160a01b0393909316845291905290205460ff1690565b3360009081526005602052604081205460ff166111105760405162461bcd60e51b81526004016104a090612cf3565b8183106111545760405162461bcd60e51b8152602060048201526012602482015271496e76616c69642074696d652072616e676560701b60448201526064016104a0565b428310156111a45760405162461bcd60e51b815260206004820152601c60248201527f53746172742074696d65206d75737420626520696e206675747572650000000060448201526064016104a0565b600680549060006111b483612d61565b9091555050604080516101208101825260065480825260208083018981528385018990526060840188905260808401879052600160a085018190523360c0860152600060e0860181905261010086018190529384529183905293909120825181559251919291908201906112289082612dfd565b506040820151600282019061123d9082612dfd565b50606082015160038201556080820151600482015560a082015160058201805460c08501516001600160a81b0319909116921515610100600160a81b031916929092176101006001600160a01b03909316830217905560e0830151600680840191909155920151600791820155905481546001810183556000929092527fa66cc928b5edb82af9bd49922954155ab7b0942694bea4ce44661d9a8736c6889091018190556040517f86a3370600c4089c572e5fa1f974825253da2be6295eb9e0eef3423aebd991b0906113139088903390612ebd565b60405180910390a250600654949350505050565b600160208181526000938452604080852090915291835291208054918101805461135090612d7a565b80601f016020809104026020016040519081016040528092919081815260200182805461137c90612d7a565b80156113c95780601f1061139e576101008083540402835291602001916113c9565b820191906000526020600020905b8154815290600101906020018083116113ac57829003601f168201915b5050505050908060020180546113de90612d7a565b80601f016020809104026020016040519081016040528092919081815260200182805461140a90612d7a565b80156114575780601f1061142c57610100808354040283529160200191611457565b820191906000526020600020905b81548152906001019060200180831161143a57829003601f168201915b50505050509080600301549080600401805461147290612d7a565b80601f016020809104026020016040519081016040528092919081815260200182805461149e90612d7a565b80156114eb5780601f106114c0576101008083540402835291602001916114eb565b820191906000526020600020905b8154815290600101906020018083116114ce57829003601f168201915b5050505050905085565b6007818154811061150557600080fd5b600091825260209091200154905081565b60606000805b600754811015611583576000806007838154811061153c5761153c612d35565b6000918252602080832090910154835282019290925260400190206005015460ff1615611571578161156d81612d61565b9250505b8061157b81612d61565b91505061151c565b5060008167ffffffffffffffff81111561159f5761159f612728565b6040519080825280602002602001820160405280156115c8578160200160208202803683370190505b5090506000805b60075481101561167157600080600783815481106115ef576115ef612d35565b6000918252602080832090910154835282019290925260400190206005015460ff161561165f576007818154811061162957611629612d35565b906000526020600020015483838151811061164657611646612d35565b60209081029190910101528161165b81612d61565b9250505b8061166981612d61565b9150506115cf565b50909392505050565b3360009081526005602052604090205460ff166116a95760405162461bcd60e51b81526004016104a090612cf3565b816000811180156116bc57506006548111155b6116d85760405162461bcd60e51b81526004016104a090612cbc565b60008381526003602090815260408083206001600160a01b038616845290915290205460ff161561174b5760405162461bcd60e51b815260206004820152601860248201527f566f74657220616c72656164792072656769737465726564000000000000000060448201526064016104a0565b60008381526003602090815260408083206001600160a01b03861680855290835292819020805460ff191660011790555191825284917ff45b8429c36d478f9a6d081c4811a819b98aa5b608588bed9d406405cf282473910160405180910390a2505050565b61180b604051806101200160405280600081526020016060815260200160608152602001600081526020016000815260200160001515815260200160006001600160a01b0316815260200160008152602001600081525090565b8160008111801561181e57506006548111155b61183a5760405162461bcd60e51b81526004016104a090612cbc565b600083815260208181526040918290208251610120810190935280548352600181018054919284019161186c90612d7a565b80601f016020809104026020016040519081016040528092919081815260200182805461189890612d7a565b80156118e55780601f106118ba576101008083540402835291602001916118e5565b820191906000526020600020905b8154815290600101906020018083116118c857829003601f168201915b505050505081526020016002820180546118fe90612d7a565b80601f016020809104026020016040519081016040528092919081815260200182805461192a90612d7a565b80156119775780601f1061194c57610100808354040283529160200191611977565b820191906000526020600020905b81548152906001019060200180831161195a57829003601f168201915b50505091835250506003820154602082015260048201546040820152600582015460ff81161515606083015261010090046001600160a01b03166080820152600682015460a082015260079091015460c0909101529392505050565b6000826000811180156119e857506006548111155b611a045760405162461bcd60e51b81526004016104a090612cbc565b505060009182526002602090815260408084206001600160a01b0393909316845291905290205460ff1690565b81600081118015611a4457506006548111155b611a605760405162461bcd60e51b81526004016104a090612cbc565b600083815260208190526040902060050154839060ff16611abc5760405162461bcd60e51b8152602060048201526016602482015275456c656374696f6e206973206e6f742061637469766560501b60448201526064016104a0565b600081815260208190526040902060030154421015611b1d5760405162461bcd60e51b815260206004820152601860248201527f456c656374696f6e20686173206e6f742073746172746564000000000000000060448201526064016104a0565b600081815260208190526040902060040154421115611b735760405162461bcd60e51b8152602060048201526012602482015271115b1958dd1a5bdb881a185cc8195b99195960721b60448201526064016104a0565b600084815260036020908152604080832033845290915290205460ff16611bdc5760405162461bcd60e51b815260206004820152601c60248201527f596f7520617265206e6f7420656c696769626c6520746f20766f74650000000060448201526064016104a0565b600084815260026020908152604080832033845290915290205460ff1615611c3f5760405162461bcd60e51b8152602060048201526016602482015275165bdd481a185d9948185b1c9958591e481d9bdd195960521b60448201526064016104a0565b600083118015611c6057506000848152602081905260409020600701548311155b611ca05760405162461bcd60e51b8152602060048201526011602482015270496e76616c69642063616e64696461746560781b60448201526064016104a0565b600084815260026020908152604080832033808552908352818420805460ff191660019081179091558885526004845282852091855290835281842087905587845282528083208684529091528120600301805491611cfe83612d61565b90915550506000848152602081905260408120600601805491611d2083612d61565b9091555050604080513381526020810185905285917f2acce567deca3aabf56327adbb4524bd5318936eaefa69e3a5208ffda0cfec09910160405180910390a250505050565b3360009081526005602052604090205460ff16611d955760405162461bcd60e51b81526004016104a090612cf3565b83600081118015611da857506006548111155b611dc45760405162461bcd60e51b81526004016104a090612cbc565b60008581526020819052604081206007810180549192611de383612d61565b90915550506040805160a08101825260078301548082526020808301898152838501899052600060608501819052608085018990528b815260018084528682209482529390925293902082518155925191929190820190611e449082612dfd565b5060408201516002820190611e599082612dfd565b506060820151600382015560808201516004820190611e789082612dfd565b50905050857fed8911b3df733b7d5f75724158e54478ea12e30f49c9d31b5261879f5b76586f826007015487604051611eb2929190612ee7565b60405180910390a2505050505050565b606081600081118015611ed757506006548111155b611ef35760405162461bcd60e51b81526004016104a090612cbc565b60008381526020819052604081206007015490819003611f47576040805160008082526020820190925290611f3e565b611f2b612698565b815260200190600190039081611f235790505b50925050610bae565b60008167ffffffffffffffff811115611f6257611f62612728565b604051908082528060200260200182016040528015611f9b57816020015b611f88612698565b815260200190600190039081611f805790505b50905060005b828110156121d957600086815260016020819052604082209190611fc6908490612f08565b81526020019081526020016000206040518060a001604052908160008201548152602001600182018054611ff990612d7a565b80601f016020809104026020016040519081016040528092919081815260200182805461202590612d7a565b80156120725780601f1061204757610100808354040283529160200191612072565b820191906000526020600020905b81548152906001019060200180831161205557829003601f168201915b5050505050815260200160028201805461208b90612d7a565b80601f01602080910402602001604051908101604052809291908181526020018280546120b790612d7a565b80156121045780601f106120d957610100808354040283529160200191612104565b820191906000526020600020905b8154815290600101906020018083116120e757829003601f168201915b505050505081526020016003820154815260200160048201805461212790612d7a565b80601f016020809104026020016040519081016040528092919081815260200182805461215390612d7a565b80156121a05780601f10612175576101008083540402835291602001916121a0565b820191906000526020600020905b81548152906001019060200180831161218357829003601f168201915b5050505050815250508282815181106121bb576121bb612d35565b602002602001018190525080806121d190612d61565b915050611fa1565b5060005b6121e8600184612f21565b81101561230b5760005b60016121fe8386612f21565b6122089190612f21565b8110156122f8578261221b826001612f08565b8151811061222b5761222b612d35565b60200260200101516060015183828151811061224957612249612d35565b60200260200101516060015110156122e657600083828151811061226f5761226f612d35565b60200260200101519050838260016122879190612f08565b8151811061229757612297612d35565b60200260200101518483815181106122b1576122b1612d35565b602090810291909101015280846122c9846001612f08565b815181106122d9576122d9612d35565b6020026020010181905250505b806122f081612d61565b9150506121f2565b508061230381612d61565b9150506121dd565b50949350505050565b60608160008111801561232957506006548111155b6123455760405162461bcd60e51b81526004016104a090612cbc565b600083815260208190526040812060070154908167ffffffffffffffff81111561237157612371612728565b6040519080825280602002602001820160405280156123aa57816020015b612397612698565b81526020019060019003908161238f5790505b50905060015b82811161230b576000868152600160208181526040808420858552825292839020835160a08101909452805484529182018054918401916123f090612d7a565b80601f016020809104026020016040519081016040528092919081815260200182805461241c90612d7a565b80156124695780601f1061243e57610100808354040283529160200191612469565b820191906000526020600020905b81548152906001019060200180831161244c57829003601f168201915b5050505050815260200160028201805461248290612d7a565b80601f01602080910402602001604051908101604052809291908181526020018280546124ae90612d7a565b80156124fb5780601f106124d0576101008083540402835291602001916124fb565b820191906000526020600020905b8154815290600101906020018083116124de57829003601f168201915b505050505081526020016003820154815260200160048201805461251e90612d7a565b80601f016020809104026020016040519081016040528092919081815260200182805461254a90612d7a565b80156125975780601f1061256c57610100808354040283529160200191612597565b820191906000526020600020905b81548152906001019060200180831161257a57829003601f168201915b505050505081525050826001836125ae9190612f21565b815181106125be576125be612d35565b602002602001018190525080806125d490612d61565b9150506123b0565b60005b6007548110156126945781600782815481106125fd576125fd612d35565b906000526020600020015403612682576007805461261d90600190612f21565b8154811061262d5761262d612d35565b90600052602060002001546007828154811061264b5761264b612d35565b600091825260209091200155600780548061266857612668612f34565b600190038181906000526020600020016000905590555050565b8061268c81612d61565b9150506125df565b5050565b6040518060a0016040528060008152602001606081526020016060815260200160008152602001606081525090565b80356001600160a01b03811681146126de57600080fd5b919050565b600080604083850312156126f657600080fd5b82359150612706602084016126c7565b90509250929050565b60006020828403121561272157600080fd5b5035919050565b634e487b7160e01b600052604160045260246000fd5b604051601f8201601f1916810167ffffffffffffffff8111828210171561276757612767612728565b604052919050565b6000806040838503121561278257600080fd5b8235915060208084013567ffffffffffffffff808211156127a257600080fd5b818601915086601f8301126127b657600080fd5b8135818111156127c8576127c8612728565b8060051b91506127d984830161273e565b81815291830184019184810190898411156127f357600080fd5b938501935b8385101561281857612809856126c7565b825293850193908501906127f8565b8096505050505050509250929050565b60006020828403121561283a57600080fd5b612843826126c7565b9392505050565b6000815180845260005b8181101561287057602081850181015186830182015201612854565b506000602082860101526020601f19601f83011685010191505092915050565b602081526000612843602083018461284a565b600080604083850312156128b657600080fd5b50508035926020909101359150565b805182526000602082015160a060208501526128e460a085018261284a565b9050604083015184820360408601526128fd828261284a565b9150506060830151606085015260808301518482036080860152612921828261284a565b95945050505050565b60208152600061284360208301846128c5565b60006101208b83528060208401526129578184018c61284a565b9050828103604084015261296b818b61284a565b60608401999099525050608081019590955292151560a08501526001600160a01b039190911660c084015260e0830152610100909101529392505050565b600082601f8301126129ba57600080fd5b813567ffffffffffffffff8111156129d4576129d4612728565b6129e7601f8201601f191660200161273e565b8181528460208386010111156129fc57600080fd5b816020850160208301376000918101602001919091529392505050565b60008060008060808587031215612a2f57600080fd5b843567ffffffffffffffff80821115612a4757600080fd5b612a53888389016129a9565b95506020870135915080821115612a6957600080fd5b50612a76878288016129a9565b949794965050505060408301359260600135919050565b85815260a060208201526000612aa660a083018761284a565b8281036040840152612ab8818761284a565b90508460608401528281036080840152612ad2818561284a565b98975050505050505050565b6020808252825182820181905260009190848201906040850190845b81811015612b1657835183529284019291840191600101612afa565b50909695505050505050565b602081528151602082015260006020830151610120806040850152612b4b61014085018361284a565b91506040850151601f19858403016060860152612b68838261284a565b92505060608501516080850152608085015160a085015260a0850151612b9260c086018215159052565b5060c08501516001600160a01b03811660e08601525060e085015161010085810191909152909401519390920192909252919050565b60008060008060808587031215612bde57600080fd5b84359350602085013567ffffffffffffffff80821115612bfd57600080fd5b612c09888389016129a9565b94506040870135915080821115612c1f57600080fd5b612c2b888389016129a9565b93506060870135915080821115612c4157600080fd5b50612c4e878288016129a9565b91505092959194509250565b6000602080830181845280855180835260408601915060408160051b870101925083870160005b82811015612caf57603f19888603018452612c9d8583516128c5565b94509285019290850190600101612c81565b5092979650505050505050565b60208082526017908201527f456c656374696f6e20646f6573206e6f74206578697374000000000000000000604082015260600190565b60208082526022908201527f4f6e6c792061646d696e2063616e20706572666f726d2074686973206163746960408201526137b760f11b606082015260800190565b634e487b7160e01b600052603260045260246000fd5b634e487b7160e01b600052601160045260246000fd5b600060018201612d7357612d73612d4b565b5060010190565b600181811c90821680612d8e57607f821691505b602082108103610bae57634e487b7160e01b600052602260045260246000fd5b601f821115612df857600081815260208120601f850160051c81016020861015612dd55750805b601f850160051c820191505b81811015612df457828155600101612de1565b5050505b505050565b815167ffffffffffffffff811115612e1757612e17612728565b612e2b81612e258454612d7a565b84612dae565b602080601f831160018114612e605760008415612e485750858301515b600019600386901b1c1916600185901b178555612df4565b600085815260208120601f198616915b82811015612e8f57888601518255948401946001909101908401612e70565b5085821015612ead5787850151600019600388901b60f8161c191681555b5050505050600190811b01905550565b604081526000612ed0604083018561284a565b905060018060a01b03831660208301529392505050565b828152604060208201526000612f00604083018461284a565b949350505050565b80820180821115612f1b57612f1b612d4b565b92915050565b81810381811115612f1b57612f1b612d4b565b634e487b7160e01b600052603160045260246000fdfea2646970667358221220c08ff1603d606e08b9966a96e3d5b1c8680b18df447db6b28018799d6add1a6a64736f6c63430008130033",
  "immutableReferences": {},
  "source": "// SPDX-License-Identifier: MIT\r\npragma solidity ^0.8.0;\r\n\r\ncontract VotingSystem {\r\n    // Struktura per kandidatin\r\n    struct Candidate {\r\n        uint256 id;\r\n        string name;\r\n        string party;\r\n        uint256 voteCount;\r\n        string imageUrl;\r\n    }\r\n\r\n    // Struktura per zgjedhjet\r\n    struct Election {\r\n        uint256 id;\r\n        string name;\r\n        string description;\r\n        uint256 startTime;\r\n        uint256 endTime;\r\n        bool isActive;\r\n        address creator;\r\n        uint256 totalVotes;\r\n        uint256 candidateCount;\r\n    }\r\n\r\n    // Struktura per votuesin\r\n    struct Voter {\r\n        address voterAddress;\r\n        string name;\r\n        bool isRegistered;\r\n    }\r\n\r\n    // Mappings\r\n    mapping(uint256 => Election) public elections;\r\n    mapping(uint256 => mapping(uint256 => Candidate)) public candidates;\r\n    mapping(uint256 => mapping(address => bool)) public hasVoted;\r\n    mapping(uint256 => mapping(address => bool)) public eligibleVoters;\r\n    mapping(uint256 => mapping(address => uint256)) public voterChoice;\r\n    mapping(address => bool) public admins;\r\n\r\n    // Arrays dhe counters\r\n    uint256 public electionCount = 0;\r\n    uint256[] public activeElectionIds;\r\n\r\n    // Events\r\n    event ElectionCreated(uint256 indexed electionId, string name, address creator);\r\n    event CandidateAdded(uint256 indexed electionId, uint256 candidateId, string name);\r\n    event VoterRegistered(uint256 indexed electionId, address voter);\r\n    event VoteCast(uint256 indexed electionId, address voter, uint256 candidateId);\r\n    event ElectionStatusChanged(uint256 indexed electionId, bool isActive);\r\n    event AdminAdded(address admin);\r\n    event AdminRemoved(address admin);\r\n\r\n    // Modifiers\r\n    modifier onlyAdmin() {\r\n        require(admins[msg.sender], \"Only admin can perform this action\");\r\n        _;\r\n    }\r\n\r\n    modifier electionExists(uint256 _electionId) {\r\n        require(_electionId > 0 && _electionId <= electionCount, \"Election does not exist\");\r\n        _;\r\n    }\r\n\r\n    modifier electionActive(uint256 _electionId) {\r\n        require(elections[_electionId].isActive, \"Election is not active\");\r\n        require(block.timestamp >= elections[_electionId].startTime, \"Election has not started\");\r\n        require(block.timestamp <= elections[_electionId].endTime, \"Election has ended\");\r\n        _;\r\n    }\r\n\r\n    // Constructor\r\n    constructor() {\r\n        admins[msg.sender] = true;\r\n        emit AdminAdded(msg.sender);\r\n    }\r\n\r\n    // Admin Management\r\n    function addAdmin(address _admin) external onlyAdmin {\r\n        require(!admins[_admin], \"Already an admin\");\r\n        admins[_admin] = true;\r\n        emit AdminAdded(_admin);\r\n    }\r\n\r\n    function removeAdmin(address _admin) external onlyAdmin {\r\n        require(_admin != msg.sender, \"Cannot remove yourself\");\r\n        require(admins[_admin], \"Not an admin\");\r\n        admins[_admin] = false;\r\n        emit AdminRemoved(_admin);\r\n    }\r\n\r\n    function isAdmin(address _address) external view returns (bool) {\r\n        return admins[_address];\r\n    }\r\n\r\n    // Election Management\r\n    function createElection(\r\n        string memory _name,\r\n        string memory _description,\r\n        uint256 _startTime,\r\n        uint256 _endTime\r\n    ) external onlyAdmin returns (uint256) {\r\n        require(_startTime < _endTime, \"Invalid time range\");\r\n        require(_startTime >= block.timestamp, \"Start time must be in future\");\r\n\r\n        electionCount++;\r\n\r\n        elections[electionCount] = Election({\r\n            id: electionCount,\r\n            name: _name,\r\n            description: _description,\r\n            startTime: _startTime,\r\n            endTime: _endTime,\r\n            isActive: true,\r\n            creator: msg.sender,\r\n            totalVotes: 0,\r\n            candidateCount: 0\r\n        });\r\n\r\n        activeElectionIds.push(electionCount);\r\n\r\n        emit ElectionCreated(electionCount, _name, msg.sender);\r\n        return electionCount;\r\n    }\r\n\r\n    function toggleElectionStatus(uint256 _electionId)\r\n        external\r\n        onlyAdmin\r\n        electionExists(_electionId)\r\n    {\r\n        elections[_electionId].isActive = !elections[_electionId].isActive;\r\n\r\n        // Update active elections array\r\n        if (!elections[_electionId].isActive) {\r\n            removeFromActiveElections(_electionId);\r\n        } else {\r\n            activeElectionIds.push(_electionId);\r\n        }\r\n\r\n        emit ElectionStatusChanged(_electionId, elections[_electionId].isActive);\r\n    }\r\n\r\n    // Candidate Management\r\n    function addCandidate(\r\n        uint256 _electionId,\r\n        string memory _name,\r\n        string memory _party,\r\n        string memory _imageUrl\r\n    ) external onlyAdmin electionExists(_electionId) {\r\n        Election storage election = elections[_electionId];\r\n        election.candidateCount++;\r\n\r\n        candidates[_electionId][election.candidateCount] = Candidate({\r\n            id: election.candidateCount,\r\n            name: _name,\r\n            party: _party,\r\n            voteCount: 0,\r\n            imageUrl: _imageUrl\r\n        });\r\n\r\n        emit CandidateAdded(_electionId, election.candidateCount, _name);\r\n    }\r\n\r\n    // Voter Management\r\n    function registerVoter(uint256 _electionId, address _voterAddress)\r\n        external\r\n        onlyAdmin\r\n        electionExists(_electionId)\r\n    {\r\n        require(!eligibleVoters[_electionId][_voterAddress], \"Voter already registered\");\r\n\r\n        eligibleVoters[_electionId][_voterAddress] = true;\r\n        emit VoterRegistered(_electionId, _voterAddress);\r\n    }\r\n\r\n    function registerMultipleVoters(uint256 _electionId, address[] memory _voters)\r\n        external\r\n        onlyAdmin\r\n        electionExists(_electionId)\r\n    {\r\n        for (uint256 i = 0; i < _voters.length; i++) {\r\n            if (!eligibleVoters[_electionId][_voters[i]]) {\r\n                eligibleVoters[_electionId][_voters[i]] = true;\r\n                emit VoterRegistered(_electionId, _voters[i]);\r\n            }\r\n        }\r\n    }\r\n\r\n    // Voting\r\n    function vote(uint256 _electionId, uint256 _candidateId)\r\n        external\r\n        electionExists(_electionId)\r\n        electionActive(_electionId)\r\n    {\r\n        require(eligibleVoters[_electionId][msg.sender], \"You are not eligible to vote\");\r\n        require(!hasVoted[_electionId][msg.sender], \"You have already voted\");\r\n        require(_candidateId > 0 && _candidateId <= elections[_electionId].candidateCount, \"Invalid candidate\");\r\n\r\n        hasVoted[_electionId][msg.sender] = true;\r\n        voterChoice[_electionId][msg.sender] = _candidateId;\r\n        candidates[_electionId][_candidateId].voteCount++;\r\n        elections[_electionId].totalVotes++;\r\n\r\n        emit VoteCast(_electionId, msg.sender, _candidateId);\r\n    }\r\n\r\n    // View Functions\r\n    function getElection(uint256 _electionId)\r\n        external\r\n        view\r\n        electionExists(_electionId)\r\n        returns (Election memory)\r\n    {\r\n        return elections[_electionId];\r\n    }\r\n\r\n    function getCandidate(uint256 _electionId, uint256 _candidateId)\r\n        external\r\n        view\r\n        electionExists(_electionId)\r\n        returns (Candidate memory)\r\n    {\r\n        require(_candidateId > 0 && _candidateId <= elections[_electionId].candidateCount, \"Invalid candidate\");\r\n        return candidates[_electionId][_candidateId];\r\n    }\r\n\r\n    function getAllCandidates(uint256 _electionId)\r\n        external\r\n        view\r\n        electionExists(_electionId)\r\n        returns (Candidate[] memory)\r\n    {\r\n        uint256 candidateCount = elections[_electionId].candidateCount;\r\n        Candidate[] memory allCandidates = new Candidate[](candidateCount);\r\n\r\n        for (uint256 i = 1; i <= candidateCount; i++) {\r\n            allCandidates[i - 1] = candidates[_electionId][i];\r\n        }\r\n\r\n        return allCandidates;\r\n    }\r\n\r\n    function getActiveElections() external view returns (uint256[] memory) {\r\n        uint256 activeCount = 0;\r\n        for (uint256 i = 0; i < activeElectionIds.length; i++) {\r\n            if (elections[activeElectionIds[i]].isActive) {\r\n                activeCount++;\r\n            }\r\n        }\r\n\r\n        uint256[] memory active = new uint256[](activeCount);\r\n        uint256 index = 0;\r\n        for (uint256 i = 0; i < activeElectionIds.length; i++) {\r\n            if (elections[activeElectionIds[i]].isActive) {\r\n                active[index] = activeElectionIds[i];\r\n                index++;\r\n            }\r\n        }\r\n\r\n        return active;\r\n    }\r\n\r\n    function isVoterEligible(uint256 _electionId, address _voter)\r\n        external\r\n        view\r\n        electionExists(_electionId)\r\n        returns (bool)\r\n    {\r\n        return eligibleVoters[_electionId][_voter];\r\n    }\r\n\r\n    function hasVoterVoted(uint256 _electionId, address _voter)\r\n        external\r\n        view\r\n        electionExists(_electionId)\r\n        returns (bool)\r\n    {\r\n        return hasVoted[_electionId][_voter];\r\n    }\r\n\r\n    function getVoterChoice(uint256 _electionId, address _voter)\r\n        external\r\n        view\r\n        electionExists(_electionId)\r\n        returns (uint256)\r\n    {\r\n        require(hasVoted[_electionId][_voter], \"Voter has not voted\");\r\n        return voterChoice[_electionId][_voter];\r\n    }\r\n\r\n    function getElectionResults(uint256 _electionId)\r\n        external\r\n        view\r\n        electionExists(_electionId)\r\n        returns (Candidate[] memory)\r\n    {\r\n        uint256 candidateCount = elections[_electionId].candidateCount;\r\n\r\n        // Handle case where there are no candidates\r\n        if (candidateCount == 0) {\r\n            return new Candidate[](0);\r\n        }\r\n\r\n        Candidate[] memory results = new Candidate[](candidateCount);\r\n\r\n        // Copy candidates to results array\r\n        for (uint256 i = 0; i < candidateCount; i++) {\r\n            results[i] = candidates[_electionId][i + 1];\r\n        }\r\n\r\n        // Sort by vote count (bubble sort) - stable sort to preserve order in ties\r\n        for (uint256 i = 0; i < candidateCount - 1; i++) {\r\n            for (uint256 j = 0; j < candidateCount - i - 1; j++) {\r\n                if (results[j].voteCount < results[j + 1].voteCount) {\r\n                    Candidate memory temp = results[j];\r\n                    results[j] = results[j + 1];\r\n                    results[j + 1] = temp;\r\n                }\r\n            }\r\n        }\r\n\r\n        return results;\r\n    }\r\n\r\n    // Helper Functions\r\n    function removeFromActiveElections(uint256 _electionId) private {\r\n        for (uint256 i = 0; i < activeElectionIds.length; i++) {\r\n            if (activeElectionIds[i] == _electionId) {\r\n                activeElectionIds[i] = activeElectionIds[activeElectionIds.length - 1];\r\n                activeElectionIds.pop();\r\n                break;\r\n            }\r\n        }\r\n    }\r\n\r\n    function getElectionStatus(uint256 _electionId)\r\n        external\r\n        view\r\n        electionExists(_electionId)\r\n        returns (string memory)\r\n    {\r\n        Election memory election = elections[_electionId];\r\n\r\n        if (!election.isActive) {\r\n            return \"Inactive\";\r\n        }\r\n\r\n        if (block.timestamp < election.startTime) {\r\n            return \"Not Started\";\r\n        }\r\n\r\n        if (block.timestamp > election.endTime) {\r\n            return \"Ended\";\r\n        }\r\n\r\n        return \"Active\";\r\n    }\r\n}",
  "sourcePath": "C:\\Users\\DELL\\PycharmProjects\\DiplomaThesis\\eVotingAPI\\Smart-Contracts\\contracts\\EVoting.sol",
  "compiler": {
    "name": "solc",
    "version": "0.8.19+commit.7dd6d404.Emscripten.clang"
  },
  "schemaVersion": "3.4.16",
  "updatedAt": "2025-09-27T13:41:01.131Z",
  "networkType": "ethereum",
  "devdoc": {
    "kind": "dev",
    "methods": {},
    "version": 1
  },
  "userdoc": {
    "kind": "user",
    "methods": {},
    "version": 1
  }
}