{
  "contractName": "Voting",
  "abi": [
    {
      "inputs": [],
      "stateMutability": "nonpayable",
      "type": "constructor"
    },
    {
      "anonymous": false,
      "inputs": [
        {
          "indexed": false,
          "internalType": "uint256",
          "name": "electionId",
          "type": "uint256"
        },
        {
          "indexed": false,
          "internalType": "uint256",
          "name": "candidateId",
          "type": "uint256"
        },
        {
          "indexed": false,
          "internalType": "string",
          "name": "name",
          "type": "string"
        }
      ],
      "name": "CandidateAdded",
      "type": "event"
    },
    {
      "anonymous": false,
      "inputs": [
        {
          "indexed": false,
          "internalType": "uint256",
          "name": "electionId",
          "type": "uint256"
        },
        {
          "indexed": false,
          "internalType": "string",
          "name": "name",
          "type": "string"
        },
        {
          "indexed": false,
          "internalType": "uint256",
          "name": "startTime",
          "type": "uint256"
        },
        {
          "indexed": false,
          "internalType": "uint256",
          "name": "endTime",
          "type": "uint256"
        }
      ],
      "name": "ElectionCreated",
      "type": "event"
    },
    {
      "anonymous": false,
      "inputs": [
        {
          "indexed": false,
          "internalType": "uint256",
          "name": "electionId",
          "type": "uint256"
        },
        {
          "indexed": false,
          "internalType": "uint256",
          "name": "candidateId",
          "type": "uint256"
        },
        {
          "indexed": false,
          "internalType": "address",
          "name": "voter",
          "type": "address"
        }
      ],
      "name": "Voted",
      "type": "event"
    },
    {
      "inputs": [],
      "name": "electionId",
      "outputs": [
        {
          "internalType": "uint256",
          "name": "",
          "type": "uint256"
        }
      ],
      "stateMutability": "view",
      "type": "function",
      "constant": true
    },
    {
      "inputs": [
        {
          "internalType": "uint256",
          "name": "",
          "type": "uint256"
        }
      ],
      "name": "elections",
      "outputs": [
        {
          "internalType": "uint256",
          "name": "id",
          "type": "uint256"
        },
        {
          "internalType": "string",
          "name": "name",
          "type": "string"
        },
        {
          "internalType": "string",
          "name": "description",
          "type": "string"
        },
        {
          "internalType": "uint256",
          "name": "startTime",
          "type": "uint256"
        },
        {
          "internalType": "uint256",
          "name": "endTime",
          "type": "uint256"
        },
        {
          "internalType": "bool",
          "name": "isActive",
          "type": "bool"
        },
        {
          "internalType": "uint256",
          "name": "candidatesCount",
          "type": "uint256"
        }
      ],
      "stateMutability": "view",
      "type": "function",
      "constant": true
    },
    {
      "inputs": [],
      "name": "electionsCount",
      "outputs": [
        {
          "internalType": "uint256",
          "name": "",
          "type": "uint256"
        }
      ],
      "stateMutability": "view",
      "type": "function",
      "constant": true
    },
    {
      "inputs": [],
      "name": "owner",
      "outputs": [
        {
          "internalType": "address",
          "name": "",
          "type": "address"
        }
      ],
      "stateMutability": "view",
      "type": "function",
      "constant": true
    },
    {
      "inputs": [
        {
          "internalType": "string",
          "name": "_name",
          "type": "string"
        },
        {
          "internalType": "string",
          "name": "_description",
          "type": "string"
        },
        {
          "internalType": "uint256",
          "name": "_startTime",
          "type": "uint256"
        },
        {
          "internalType": "uint256",
          "name": "_endTime",
          "type": "uint256"
        }
      ],
      "name": "createElection",
      "outputs": [],
      "stateMutability": "nonpayable",
      "type": "function"
    },
    {
      "inputs": [
        {
          "internalType": "uint256",
          "name": "_electionId",
          "type": "uint256"
        },
        {
          "internalType": "string",
          "name": "_name",
          "type": "string"
        }
      ],
      "name": "addCandidate",
      "outputs": [],
      "stateMutability": "nonpayable",
      "type": "function"
    },
    {
      "inputs": [
        {
          "internalType": "uint256",
          "name": "_electionId",
          "type": "uint256"
        },
        {
          "internalType": "uint256",
          "name": "_candidateId",
          "type": "uint256"
        }
      ],
      "name": "vote",
      "outputs": [],
      "stateMutability": "nonpayable",
      "type": "function"
    },
    {
      "inputs": [
        {
          "internalType": "uint256",
          "name": "_electionId",
          "type": "uint256"
        }
      ],
      "name": "getElectionResults",
      "outputs": [
        {
          "internalType": "uint256[]",
          "name": "",
          "type": "uint256[]"
        },
        {
          "internalType": "uint256[]",
          "name": "",
          "type": "uint256[]"
        }
      ],
      "stateMutability": "view",
      "type": "function",
      "constant": true
    },
    {
      "inputs": [
        {
          "internalType": "uint256",
          "name": "_electionId",
          "type": "uint256"
        }
      ],
      "name": "getElectionDetails",
      "outputs": [
        {
          "internalType": "uint256",
          "name": "id",
          "type": "uint256"
        },
        {
          "internalType": "string",
          "name": "name",
          "type": "string"
        },
        {
          "internalType": "string",
          "name": "description",
          "type": "string"
        },
        {
          "internalType": "uint256",
          "name": "startTime",
          "type": "uint256"
        },
        {
          "internalType": "uint256",
          "name": "endTime",
          "type": "uint256"
        },
        {
          "internalType": "bool",
          "name": "isActive",
          "type": "bool"
        },
        {
          "internalType": "uint256",
          "name": "candidatesCount",
          "type": "uint256"
        }
      ],
      "stateMutability": "view",
      "type": "function",
      "constant": true
    },
    {
      "inputs": [
        {
          "internalType": "uint256",
          "name": "_electionId",
          "type": "uint256"
        },
        {
          "internalType": "uint256",
          "name": "_candidateId",
          "type": "uint256"
        }
      ],
      "name": "getCandidateDetails",
      "outputs": [
        {
          "internalType": "uint256",
          "name": "id",
          "type": "uint256"
        },
        {
          "internalType": "string",
          "name": "name",
          "type": "string"
        },
        {
          "internalType": "uint256",
          "name": "voteCount",
          "type": "uint256"
        }
      ],
      "stateMutability": "view",
      "type": "function",
      "constant": true
    },
    {
      "inputs": [
        {
          "internalType": "uint256",
          "name": "_electionId",
          "type": "uint256"
        },
        {
          "internalType": "address",
          "name": "_voter",
          "type": "address"
        }
      ],
      "name": "hasVoted",
      "outputs": [
        {
          "internalType": "bool",
          "name": "",
          "type": "bool"
        }
      ],
      "stateMutability": "view",
      "type": "function",
      "constant": true
    }
  ],
  "bytecode": "0x608060405234801561001057600080fd5b50600080546001600160a01b0319163317815560035561137f806100356000396000f3fe608060405234801561001057600080fd5b50600436106100a95760003560e01c80638da5cb5b116100715780638da5cb5b1461013a5780639a74c6951461014f578063b384abef14610157578063e4801f391461016a578063e8ededa61461018c578063f6049924146101ad576100a9565b8063051364d4146100ae5780631750a3d0146100cc57806343859632146100e15780635e6fef01146101015780637ad36e8414610127575b600080fd5b6100b66101c0565b6040516100c391906111c2565b60405180910390f35b6100df6100da366004610e15565b6101c6565b005b6100f46100ef366004610ddb565b61030d565b6040516100c39190610f42565b61011461010f366004610dc3565b61036f565b6040516100c397969594939291906111cb565b6100df610135366004610d52565b6104c1565b6101426105ed565b6040516100c39190610f00565b6100b66105fc565b6100df610165366004610e5a565b610602565b61017d610178366004610e5a565b61077f565b6040516100c39392919061121d565b61019f61019a366004610dc3565b6108ba565b6040516100c3929190610f14565b6101146101bb366004610dc3565b610a8f565b60015481565b6000546001600160a01b031633146101f95760405162461bcd60e51b81526004016101f090611180565b60405180910390fd5b8160008111801561020c57506003548111155b6102285760405162461bcd60e51b81526004016101f090611002565b6000838152600260205260409020600381015442106102595760405162461bcd60e51b81526004016101f0906110d2565b60078101805490600061026b83611302565b9091555050604080516060810182526007830154808252602080830187815260008486018190529283526006860182529390912082518155925180519293926102ba9260018501920190610c38565b50604082015181600201559050507fed8911b3df733b7d5f75724158e54478ea12e30f49c9d31b5261879f5b76586f848260070154856040516102ff93929190611291565b60405180910390a150505050565b60008260008111801561032257506003548111155b61033e5760405162461bcd60e51b81526004016101f090611002565b505060009182526002602090815260408084206001600160a01b039390931684526008909201905290205460ff1690565b60026020526000908152604090208054600182018054919291610391906112c7565b80601f01602080910402602001604051908101604052809291908181526020018280546103bd906112c7565b801561040a5780601f106103df5761010080835404028352916020019161040a565b820191906000526020600020905b8154815290600101906020018083116103ed57829003601f168201915b50505050509080600201805461041f906112c7565b80601f016020809104026020016040519081016040528092919081815260200182805461044b906112c7565b80156104985780601f1061046d57610100808354040283529160200191610498565b820191906000526020600020905b81548152906001019060200180831161047b57829003601f168201915b5050506003840154600485015460058601546007909601549495919490935060ff909116915087565b6000546001600160a01b031633146104eb5760405162461bcd60e51b81526004016101f090611180565b80821061050a5760405162461bcd60e51b81526004016101f090610f4d565b4282116105295760405162461bcd60e51b81526004016101f09061102f565b6003805490600061053983611302565b909155505060035460018181556000828152600260209081526040909120928355865161056b92840191880190610c38565b5083516105819060028301906020870190610c38565b50600381018390556004810182905560058101805460ff1916600190811790915560006007830155546040517fe7a0aae5d733e07e246dea86213a1ac1b0aa8554bde889bb75c12752f44e53d9916105de91889087908790611246565b60405180910390a15050505050565b6000546001600160a01b031681565b60035481565b8160008111801561061557506003548111155b6106315760405162461bcd60e51b81526004016101f090611002565b6000838152600260205260409020600581015460ff166106635760405162461bcd60e51b81526004016101f090611122565b80600301544210156106875760405162461bcd60e51b81526004016101f09061109b565b80600401544211156106ab5760405162461bcd60e51b81526004016101f090610f8f565b33600090815260088201602052604090205460ff16156106dd5760405162461bcd60e51b81526004016101f090610fbb565b6000831180156106f1575080600701548311155b61070d5760405162461bcd60e51b81526004016101f090611152565b3360009081526008820160209081526040808320805460ff1916600117905585835260068401909152812060020180549161074783611302565b91905055507fd91ecafccf238642dccd41161308b3eebe62a12bc5819daf5164780c221ec95b8484336040516102ff93929190611272565b6000606060008460008111801561079857506003548111155b6107b45760405162461bcd60e51b81526004016101f090611002565b6000851180156107d557506000868152600260205260409020600701548511155b6107f15760405162461bcd60e51b81526004016101f090611152565b6000868152600260208181526040808420898552600601909152909120805491810154600182018054929392909190829061082b906112c7565b80601f0160208091040260200160405190810160405280929190818152602001828054610857906112c7565b80156108a45780601f10610879576101008083540402835291602001916108a4565b820191906000526020600020905b81548152906001019060200180831161088757829003601f168201915b5050505050915094509450945050509250925092565b606080826000811180156108d057506003548111155b6108ec5760405162461bcd60e51b81526004016101f090611002565b60008481526002602052604090206004810154421161091d5760405162461bcd60e51b81526004016101f090611064565b6000816007015467ffffffffffffffff81111561094a57634e487b7160e01b600052604160045260246000fd5b604051908082528060200260200182016040528015610973578160200160208202803683370190505b5090506000826007015467ffffffffffffffff8111156109a357634e487b7160e01b600052604160045260246000fd5b6040519080825280602002602001820160405280156109cc578160200160208202803683370190505b50905060015b83600701548111610a82576000818152600685016020526040902054836109fa6001846112b0565b81518110610a1857634e487b7160e01b600052603260045260246000fd5b602090810291909101810191909152600082815260068601909152604090206002015482610a476001846112b0565b81518110610a6557634e487b7160e01b600052603260045260246000fd5b602090810291909101015280610a7a81611302565b9150506109d2565b5090945092505050915091565b600060608060008060008087600081118015610aad57506003548111155b610ac95760405162461bcd60e51b81526004016101f090611002565b600089815260026020819052604090912080546003820154600483015460058401546007850154600186018054969795969095880194939260ff1691908690610b11906112c7565b80601f0160208091040260200160405190810160405280929190818152602001828054610b3d906112c7565b8015610b8a5780601f10610b5f57610100808354040283529160200191610b8a565b820191906000526020600020905b815481529060010190602001808311610b6d57829003601f168201915b50505050509550848054610b9d906112c7565b80601f0160208091040260200160405190810160405280929190818152602001828054610bc9906112c7565b8015610c165780601f10610beb57610100808354040283529160200191610c16565b820191906000526020600020905b815481529060010190602001808311610bf957829003601f168201915b5050505050945098509850985098509850985098505050919395979092949650565b828054610c44906112c7565b90600052602060002090601f016020900481019282610c665760008555610cac565b82601f10610c7f57805160ff1916838001178555610cac565b82800160010185558215610cac579182015b82811115610cac578251825591602001919060010190610c91565b50610cb8929150610cbc565b5090565b5b80821115610cb85760008155600101610cbd565b600082601f830112610ce1578081fd5b813567ffffffffffffffff80821115610cfc57610cfc611333565b604051601f8301601f191681016020018281118282101715610d2057610d20611333565b604052828152848301602001861015610d37578384fd5b82602086016020830137918201602001929092529392505050565b60008060008060808587031215610d67578384fd5b843567ffffffffffffffff80821115610d7e578586fd5b610d8a88838901610cd1565b95506020870135915080821115610d9f578485fd5b50610dac87828801610cd1565b949794965050505060408301359260600135919050565b600060208284031215610dd4578081fd5b5035919050565b60008060408385031215610ded578182fd5b8235915060208301356001600160a01b0381168114610e0a578182fd5b809150509250929050565b60008060408385031215610e27578182fd5b82359150602083013567ffffffffffffffff811115610e44578182fd5b610e5085828601610cd1565b9150509250929050565b60008060408385031215610e6c578182fd5b50508035926020909101359150565b6000815180845260208085019450808401835b83811015610eaa57815187529582019590820190600101610e8e565b509495945050505050565b60008151808452815b81811015610eda57602081850181015186830182015201610ebe565b81811115610eeb5782602083870101525b50601f01601f19169290920160200192915050565b6001600160a01b0391909116815260200190565b600060408252610f276040830185610e7b565b8281036020840152610f398185610e7b565b95945050505050565b901515815260200190565b60208082526022908201527f53746172742074696d65206d757374206265206265666f726520656e642074696040820152616d6560f01b606082015260800190565b602080825260129082015271115b1958dd1a5bdb881a185cc8195b99195960721b604082015260600190565b60208082526027908201527f596f75206861766520616c726561647920766f74656420696e207468697320656040820152663632b1ba34b7b760c91b606082015260800190565b602080825260139082015272125b9d985b1a5908195b1958dd1a5bdb881251606a1b604082015260600190565b6020808252818101527f53746172742074696d65206d75737420626520696e2074686520667574757265604082015260600190565b6020808252601a908201527f456c656374696f6e20686173206e6f7420656e64656420796574000000000000604082015260600190565b6020808252601c908201527f456c656374696f6e20686173206e6f7420737461727465642079657400000000604082015260600190565b60208082526030908201527f43616e6e6f74206164642063616e6469646174657320616674657220656c656360408201526f1d1a5bdb881a185cc81cdd185c9d195960821b606082015260800190565b602080825260169082015275456c656374696f6e206973206e6f742061637469766560501b604082015260600190565b602080825260149082015273125b9d985b1a590818d85b991a59185d1948125160621b604082015260600190565b60208082526022908201527f4f6e6c79206f776e65722063616e20706572666f726d2074686973206163746960408201526137b760f11b606082015260800190565b90815260200190565b600088825260e060208301526111e460e0830189610eb5565b82810360408401526111f68189610eb5565b60608401979097525050608081019390935290151560a083015260c0909101529392505050565b6000848252606060208301526112366060830185610eb5565b9050826040830152949350505050565b60008582526080602083015261125f6080830186610eb5565b6040830194909452506060015292915050565b92835260208301919091526001600160a01b0316604082015260600190565b600084825283602083015260606040830152610f396060830184610eb5565b6000828210156112c2576112c261131d565b500390565b6002810460018216806112db57607f821691505b602082108114156112fc57634e487b7160e01b600052602260045260246000fd5b50919050565b60006000198214156113165761131661131d565b5060010190565b634e487b7160e01b600052601160045260246000fd5b634e487b7160e01b600052604160045260246000fdfea26469706673582212200425948cfd693e03622396e0b62dd6f12abc928bab7e5090ebc821f35a25744f64736f6c63430008000033",
  "immutableReferences": {},
  "source": "// SPDX-License-Identifier: MIT\r\npragma solidity 0.8.0;\r\n\r\ncontract Voting {\r\n    address public owner;\r\n    uint public electionId;\r\n\r\n    struct Candidate {\r\n        uint id;\r\n        string name;\r\n        uint voteCount;\r\n    }\r\n\r\n    struct Election {\r\n        uint id;\r\n        string name;\r\n        string description;\r\n        uint startTime;\r\n        uint endTime;\r\n        bool isActive;\r\n        mapping(uint => Candidate) candidates;\r\n        uint candidatesCount;\r\n        mapping(address => bool) voters;\r\n    }\r\n\r\n    mapping(uint => Election) public elections;\r\n    uint public electionsCount;\r\n\r\n    event ElectionCreated(uint electionId, string name, uint startTime, uint endTime);\r\n    event Voted(uint electionId, uint candidateId, address voter);\r\n    event CandidateAdded(uint electionId, uint candidateId, string name);\r\n\r\n    modifier onlyOwner() {\r\n        require(msg.sender == owner, \"Only owner can perform this action\");\r\n        _;\r\n    }\r\n\r\n    modifier validElection(uint _electionId) {\r\n        require(_electionId > 0 && _electionId <= electionsCount, \"Invalid election ID\");\r\n        _;\r\n    }\r\n\r\n    constructor() {\r\n        owner = msg.sender;\r\n        electionsCount = 0;\r\n    }\r\n\r\n    function createElection(\r\n        string memory _name,\r\n        string memory _description,\r\n        uint _startTime,\r\n        uint _endTime\r\n    ) public onlyOwner {\r\n        require(_startTime < _endTime, \"Start time must be before end time\");\r\n        require(_startTime > block.timestamp, \"Start time must be in the future\");\r\n\r\n        electionsCount++;\r\n        electionId = electionsCount;\r\n\r\n        Election storage e = elections[electionId];\r\n        e.id = electionId;\r\n        e.name = _name;\r\n        e.description = _description;\r\n        e.startTime = _startTime;\r\n        e.endTime = _endTime;\r\n        e.isActive = true;\r\n        e.candidatesCount = 0;\r\n\r\n        emit ElectionCreated(electionId, _name, _startTime, _endTime);\r\n    }\r\n\r\n    function addCandidate(uint _electionId, string memory _name)\r\n        public\r\n        onlyOwner\r\n        validElection(_electionId)\r\n    {\r\n        Election storage e = elections[_electionId];\r\n        require(block.timestamp < e.startTime, \"Cannot add candidates after election has started\");\r\n\r\n        e.candidatesCount++;\r\n        e.candidates[e.candidatesCount] = Candidate(e.candidatesCount, _name, 0);\r\n\r\n        emit CandidateAdded(_electionId, e.candidatesCount, _name);\r\n    }\r\n\r\n    function vote(uint _electionId, uint _candidateId)\r\n        public\r\n        validElection(_electionId)\r\n    {\r\n        Election storage e = elections[_electionId];\r\n        require(e.isActive, \"Election is not active\");\r\n        require(block.timestamp >= e.startTime, \"Election has not started yet\");\r\n        require(block.timestamp <= e.endTime, \"Election has ended\");\r\n        require(!e.voters[msg.sender], \"You have already voted in this election\");\r\n        require(_candidateId > 0 && _candidateId <= e.candidatesCount, \"Invalid candidate ID\");\r\n\r\n        e.voters[msg.sender] = true;\r\n        e.candidates[_candidateId].voteCount++;\r\n\r\n        emit Voted(_electionId, _candidateId, msg.sender);\r\n    }\r\n\r\n    function getElectionResults(uint _electionId)\r\n        public\r\n        view\r\n        validElection(_electionId)\r\n        returns (uint[] memory, uint[] memory)\r\n    {\r\n        Election storage e = elections[_electionId];\r\n        require(block.timestamp > e.endTime, \"Election has not ended yet\");\r\n\r\n        uint[] memory candidateIds = new uint[](e.candidatesCount);\r\n        uint[] memory voteCounts = new uint[](e.candidatesCount);\r\n\r\n        for (uint i = 1; i <= e.candidatesCount; i++) {\r\n            candidateIds[i-1] = e.candidates[i].id;\r\n            voteCounts[i-1] = e.candidates[i].voteCount;\r\n        }\r\n\r\n        return (candidateIds, voteCounts);\r\n    }\r\n\r\n    function getElectionDetails(uint _electionId)\r\n        public\r\n        view\r\n        validElection(_electionId)\r\n        returns (\r\n            uint id,\r\n            string memory name,\r\n            string memory description,\r\n            uint startTime,\r\n            uint endTime,\r\n            bool isActive,\r\n            uint candidatesCount\r\n        )\r\n    {\r\n        Election storage e = elections[_electionId];\r\n        return (\r\n            e.id,\r\n            e.name,\r\n            e.description,\r\n            e.startTime,\r\n            e.endTime,\r\n            e.isActive,\r\n            e.candidatesCount\r\n        );\r\n    }\r\n\r\n    function getCandidateDetails(uint _electionId, uint _candidateId)\r\n        public\r\n        view\r\n        validElection(_electionId)\r\n        returns (uint id, string memory name, uint voteCount)\r\n    {\r\n        require(_candidateId > 0 && _candidateId <= elections[_electionId].candidatesCount, \"Invalid candidate ID\");\r\n\r\n        Candidate storage c = elections[_electionId].candidates[_candidateId];\r\n        return (c.id, c.name, c.voteCount);\r\n    }\r\n\r\n    function hasVoted(uint _electionId, address _voter)\r\n        public\r\n        view\r\n        validElection(_electionId)\r\n        returns (bool)\r\n    {\r\n        return elections[_electionId].voters[_voter];\r\n    }\r\n}",
  "sourcePath": "C:\\Users\\DELL\\PycharmProjects\\DiplomaThesis\\eVotingAPI\\Smart-Contracts\\contracts\\EVoting.sol",
  "compiler": {
    "name": "solc",
    "version": "0.8.0+commit.c7dfd78e.Emscripten.clang"
  },
  "schemaVersion": "3.4.16",
  "updatedAt": "2025-09-15T17:04:18.514Z",
  "networkType": "ethereum",
  "devdoc": {
    "kind": "dev",
    "methods": {},
    "version": 1
  },
  "userdoc": {
    "kind": "user",
    "methods": {},
    "version": 1
  }
}